:020000040000FA
:10000000900400206D0200008102000083020000C5
:100010008502000087020000890200000000000045
:100020000000000000000000000000008B02000043
:100030008D020000000000008F020000910200000D
:10004000930200009302000093020000930200005C
:10005000930200009302000093020000930200004C
:10006000930200009302000093020000930200003C
:10007000930200009302000093020000930200002C
:10008000390D0000990D000093020000930200005A
:10009000930200009302000093020000930200000C
:1000A00093020000930200009302000093020000FC
:1000B00093020000930200009302000093020000EC
:1000C00093020000930200009302000093020000DC
:1000D00093020000930200009302000093020000CC
:1000E00093020000930200009302000093020000BC
:1000F00093020000930200009302000093020000AC
:10010000930200009302000093020000930200009B
:10011000930200009302000093020000930200008B
:10012000930200009302000093020000930200007B
:10013000950C00009302000093020000930200005F
:1001400000000000000000000000000000000000AF
:10015000930200009302000093020000930200004B
:10016000000000000000000000000000000000008F
:10017000000000000000000000000000000000007F
:10018000000000000000000000000000000000006F
:10019000000000000000000000000000000000005F
:1001A000000000000000000000000000000000004F
:1001B00093020000930200009302000093020000EB
:1001C00093020000930200009302000093020000DB
:1001D00093020000930200009302000093020000CB
:1001E00093020000930200009302000093020000BB
:1001F00093020000930200009302000093020000AB
:10020000930200009302000093020000000000002F
:10021000930200009302000093020000930200008A
:10022000930200009302000093020000930200007A
:10023000930200009302000093020000930200006A
:10024000930200009302000093020000930200005A
:10025000930200009302000093020000930200004A
:100260009302000093020000930200004EF68850B3
:10027000CEF20000016841F47001016000F00AB89C
:10028000FEE7FEE7FEE7FEE7FEE7FEE7FEE7FEE746
:10029000FEE7FEE700F002F800F041F80AA090E85F
:1002A000000C82448344AAF10107DA4501D100F031
:1002B00036F8AFF2090EBAE80F0013F0010F18BFBD
:1002C000FB1A43F0010318479C140000BC14000003
:1002D000103A24BF78C878C1FAD8520724BF30C872
:1002E00030C144BF04680C60704700000023002444
:1002F00000250026103A28BF78C1FBD8520728BF36
:1003000030C148BF0B607047642900F04986002067
:1003100070471FB501F0CCF91FBD10B510BD00F03E
:10032000F8FE1146FFF7F5FF00F08EFB00F016FF18
:1003300003B4FFF7F2FF03BC00F01AFF72B6704778
:1003400062B670474FF0400080F311887047EFF3BA
:10035000108072B6704780F31088704730BF7047C6
:1003600002480349014A034B7047000090000020F7
:10037000900400209000002000BFFD49896911F021
:10038000200FFAD1FA490860704700B5024603E031
:100390001078FFF7F1FF521C10780028F8D100BD4B
:1003A0000146A1F578527F3A00D10020B1F5615F96
:1003B00000D10A20B1F5485F00D11420A1F53852D0
:1003C000E03A00D11920B1F52F5F00D11E20B1F520
:1003D000165F00D12820B1F5FA5F00D13220B1F5C7
:1003E000C85F00D13C20B1F5965F00D14620B1F541
:1003F000486F00D15020B1F5C86F00D15A2001B923
:1004000064207047DB480068FA2803DC43F67F600D
:10041000D9490860D7480068FA2801DD012000E0CA
:100420000020D4490968B1F5FA7F01DC012100E020
:100430000021084203D04FF46150CF490860CD48F5
:100440000068B0F5FA7F01DD012000E00020C94915
:10045000096840F2EE22914201DC012100E0002116
:10046000084203D04FF44850C3490860C1480068AF
:1004700040F2EE21884201DD012000E00020BD496C
:100480000968B1F57A7F01DC012100E00021084212
:1004900003D04FF42F50B8490860B6480068B0F553
:1004A0007A7F01DD012000E00020B249096840F2B6
:1004B000E242914201DC012100E00021084203D028
:1004C0004FF41650AC490860AA48006840F2E24177
:1004D000884201DD012000E00020A649096840F2C1
:1004E000DC52914201DC012100E00021084203D0EE
:1004F0004FF4FA50A04908609E48006840F2DC5171
:10050000884201DD012000E000209A49096840F29C
:10051000D662914201DC012100E00021084203D0B3
:100520004FF4C850944908609248006840F2D66180
:10053000884201DD012000E000208E490968B1F504
:10054000FA6F01DC012100E00021084203D04FF4E2
:1005500096508949086087480068B0F5FA6F01DD58
:10056000012000E000208349096840F6CA02914258
:1005700001DC012100E00021084203D04FF4486073
:100580007D4908607B48006840F6CA01884201DD69
:10059000012000E000207749096840F6C41291422A
:1005A00001DC012100E00021084203D04FF4C860C3
:1005B000714908606F48006840F6C411884202DD46
:1005C00000206D490860704701B5002000E0401C24
:1005D00000998842FBD308BD00B5FF206749086039
:1005E000674800684FF00A0190FBF1F06549085C2C
:1005F0006549C1F8FC0365480078604908604FF41C
:100600007A70FFF7E1FFFF204FF04021C1F8FC03B3
:100610005B4800680A2190FBF1F201FB1200594986
:10062000085C5949C1F8FC03584840784FF0402114
:10063000C1F8FC034FF47A70FFF7C6FFFF204F4963
:10064000086000BD11B5002402E0FFF7C5FF641C7F
:1006500000988442F9D318BD4D48806A40F00400E8
:100660004B4988627047464800680F2803DC43F610
:100670007F6048490860424800680F2807DD40480D
:100680000068142803DC42F6E060424908603C48F8
:100690000068142807DD3A480068192803DC4FF485
:1006A000FA503C49086036480068192807DD34488C
:1006B00000681E2803DC4FF4965036490860304825
:1006C00000681E2807DD2E480068232803DC4FF44D
:1006D0004860304908602A480068232807DD284818
:1006E0000068282803DC4FF4C8602A4908602448C1
:1006F0000068282802DD0020264908607047244849
:10070000806A40F0080022498862704700B50D20D9
:10071000FFF732FE0A20FFF72FFE00BD1E480068DB
:1007200040F002001C4908601C48C06800201B49BA
:10073000C8600846006840F0040008600846406849
:1007400040F00A0048600846806840F00A0088606F
:100750004FF47A508862C862401E086348630846B6
:10076000C06840F2011108430C49C860704700009E
:1007700000C000400400002018000020FC4300409E
:10078000000000200800002000500040BC160000BF
:10079000008003402000002004E60F4000100340CA
:1007A000F848006840F00100F6490860F648C06863
:1007B0000020F549C8600846006840F00400086061
:1007C0000846406840F00A0048600846806840F0EB
:1007D0000A0088604FF47A508862C862401E08633D
:1007E00048630846C06840F201110843E649C86002
:1007F0007047E448001D006840F02300E149091DEE
:100800000860E248006840F07F00E0490860E04886
:10081000006840F07F00DE490860DE48006840F074
:100820000C00DC490860DC48006840F00C00DA4944
:100830000860DA48DA4908600120091D0860D848D4
:10084000001F006840F00F00D549091F0860D54817
:10085000006840F00F00D3490860D1480C300068B0
:1008600047F277710843CE490C310860CD482038F3
:10087000006840F00F00CB49203908607047C1483C
:100880001430006840F01000BE4914310860BD48C3
:10089000001D006840F00400BA49091D0860C24804
:1008A000006B40F201318843BF4908630820486269
:1008B0002C2088627020C8620846006B40F201312B
:1008C0000843B9490863B948006840F03000B749A7
:1008D0000860B648FC30006840F03000B349FC3195
:1008E0000860B348006820F47F0000F58810B04924
:1008F0000860081F006820F03000091F0860AA483F
:10090000406C20F01000A84948641020886300065D
:10091000A84908604FF00000A34948637047994810
:100920001430006840F00100964914310860954881
:10093000001D006840F001009249091D08609E48B2
:10094000006B20F001009C490863082048622C20BD
:1009500088627020C8620846006B40F0010008639E
:100960008C482030006840F003008A49203108603C
:100970008948006840F003008749086086481030C5
:10098000006820F0FF001130834910310860081F13
:10099000006820F00300091F0860704700B579481F
:1009A0003430006840F00100764934310860754801
:1009B000001D006840F010007249091D0860032006
:1009C000FFF702FE7D48006820F006007B490860C2
:1009D0007A480C30006840F0060078490C31086015
:1009E0007748006840F00300754908606FF00C001C
:1009F000744908600120744908604FF00200714991
:100A0000C1F880000846D0F8A40040F006006F4905
:100A100008604FF006006B49C1F884000846006B7F
:100A200040F0040008630846806840F00C008860CD
:100A30004FF40030664908604FF4803008604FF092
:100A40000C006049086000BD8AB0FFF7A7FFFFF700
:100A500066FFFFF714FFFFF7CCFEFFF7A1FEFFF7DD
:100A60005DFEFFF753FE5BA0FFF78FFCFFF74EFE26
:100A700052E0FFF744FE4FF4FA70FFF7E3FDFFF793
:100A8000F2FDFFF7E9FD4FF4FA70FFF7DBFDFFF72A
:100A9000B9FC5B480068012803D15A4800683A490C
:100AA000086359480068012803D156480068364950
:100AB000486356480068012803D1554800685549E5
:100AC000086355480068012803D15148006851491E
:100AD00048635049486BFFF763FC04464D49086B77
:100AE000FFF75EFC05462849486BFFF759FC0646B0
:100AF0002549086BFFF754FC0746CDE901650394CF
:100B000000904648036846484649026805A800F038
:100B1000FFF905A8FFF739FCABE700BF264880695D
:100B200010F0100FFAD124480068C0B2704730B5F9
:100B300002460D460023FFF7F0FF044613E0082CA1
:100B400006D16BB1521E5B1E0820FFF715FC07E0B3
:100B5000AB4205DA1470521C5B1C2046FFF70CFCFC
:100B6000FFF7DBFF04460D2CE9D10020107030BDEB
:100B700000BF0D49896911F0200FFAD10A490860B8
:100B80007047000004E60F4000000340005400409E
:100B90001C550040004400401C4500404B434F4C56
:100BA00020550240205402400000014020640040D3
:100BB0002C65004004E100E000C000401C450240FC
:100BC000C48F034000800340A0800340A480034002
:100BD00000E100E057656C636F6D6520746F2074F1
:100BE000686520536D61727420486F6D6520417592
:100BF000746F6D6174696F6E2053797374656D00E5
:100C00002400002020000020280000202C000020CC
:100C100018000020001003401C00002004000020E9
:100C200000000020C016000000B5024603E0107866
:100C3000FFF79EFF521C10780028F8D100BD00BFBE
:100C40009048806910F0100FFAD18E480068C0B249
:100C5000704730B502460D460023FFF7F0FF04460B
:100C600013E0082C06D16BB1521E5B1E0820FFF763
:100C70007FFF07E0AB4205DA1470521C5B1C204674
:100C8000FFF776FFFFF7DBFF04460D2CE9D10020CC
:100C9000107030BD7B49496C21F01001794A5164D4
:100CA00011460968C8B2412806D177490968774AD0
:100CB00011630121764A1160422806D143F67F6113
:100CC000724A11630021724A1160432806D16E49AD
:100CD00009686E4A516301216E4A1160442806D1A9
:100CE00043F67F61694A516300216A4A11604528D1
:100CF00006D169490968694A11630121684A11608E
:100D0000462806D143F67F61644A11630021644A94
:100D10001160472806D160490968604A5163012182
:100D2000604A1160482806D143F67F615B4A5163EF
:100D300000215C4A1160704710B52DED048B002432
:100D400059480068C0F30B04204600F0A0FB41ECBA
:100D5000100BB0EE409AF0EE609A9FED540B53ECFE
:100D6000102B51EC190B00F0A5FB41EC100BB0EE71
:100D7000408AF0EE608A51EC180B00F059FB4D49A7
:100D8000086049488838C06840F0040046498839FE
:100D9000C860BDEC048B10BD10B52DED088B002490
:100DA00045480068C0F30B04204600F070FB41EC9E
:100DB000100BB0EE40BAF0EE60BA9FED400B53EC72
:100DC000102B51EC1B0B00F075FB41EC100BB0EE3F
:100DD00040AAF0EE60AA9FED3B0B53EC102B51ECB8
:100DE0001A0B00F0CDF941EC100BB0EE409AF0EE8A
:100DF000609A9FED360B53EC102B51EC190B00F061
:100E000059FB41EC100BB0EE408AF0EE608A51ECD9
:100E1000180B00F00DFB2F49086023488838C06884
:100E200040F0080020498839C860BDEC088B10BD2F
:100E300000B58BB0274828A1026806A800F068F822
:100E40001C4825A1026801A800F062F80D20FFF7F8
:100E50008FFE0A20FFF78CFE20A0FFF7E5FE06A814
:100E6000FFF7E2FE0D20FFF783FE0A20FFF780FE6A
:100E700020A0FFF7D9FE01A8FFF7D6FE0BB000BDFA
:100E800070470000000001402000002000000340E7
:100E9000240000202800002018000020001003403B
:100EA0002C0000201C000020888003409A9999990A
:100EB0009999E93F04000020A880034066666666B1
:100EC00066660A40000000000000B040000000001C
:100ED0000000594000000020256400004375727234
:100EE000656E742054656D706572617475726520ED
:100EF0006973200054686520496E74656E73697467
:100F000079206F66204C696768742069732000003F
:100F10000FB41CB5074B06AA7B44694600900598A0
:100F200000F0DFF80020694600F0EEF81CBC5DF828
:100F300014FB0000ED0100002DE9F0410E460446CF
:100F4000002020622046E168884730B3252805D07C
:100F5000D4E901219047206A401CF2E7E16820466D
:100F600000278847050018D0A5F14100192802D8AC
:100F700020354FF400673246294620462760FFF7A8
:100F8000C3F940B1012804D0F61D26F00706083643
:100F9000D8E7361DD6E72846DAE7206ABDE8F081B3
:100FA0002DE9F0410646002410687529314616A542
:100FB00011D0AFF30080002803DAC0F1000013A5C0
:100FC00007E031688A0701D511A502E0490704D579
:100FD00010A5012401E0AFF3008000210A2306F1EF
:100FE000240707E0B0FBF3F203FB12003030785423
:100FF0001046491C0028F5D123462A463046BDE854
:10100000F04100F00CB80000000000002D000000CE
:101010002B000000200000007047704770472DE94A
:10102000F0470D4699469246044600F124080168AF
:10103000880604D5E06921F01001216000E001205C
:10104000A84202DDA0EB050700E00027A16907EB3D
:10105000050202EB0900A1EB0000A0612078C006A8
:1010600002D42046AFF30080002608E0D4E9012135
:101070001AF806009047206A401C761C20624E45F4
:10108000F4DB2078C0060AD52046AFF3008006E0E6
:10109000D4E9012130209047206A401C2062381E8C
:1010A000A7F10107F4DC07E0D4E9012118F80500F5
:1010B0009047206A401C2062281EA5F10105F3DC40
:1010C0002046AFF300802078000602D50220BDE85C
:1010D000F0870120FBE7000001694A1C02610878E3
:1010E000704700B58FB0CDE9013100210591054968
:1010F0007944CDE9031011466846FFF71DFF0FB094
:1011000000BD0000E5FFFFFF0A6802F8010B0A605E
:101110007047754600F028F8AE460500694653460C
:1011200020F00700854618B020B5FFF719F9BDE893
:1011300020404FF000064FF000074FF000084FF03E
:10114000000B21F00701AC46ACE8C009ACE8C009CF
:10115000ACE8C009ACE8C0098D4670470446AFF35F
:1011600000802046FFF7E4F8004870473000002078
:1011700001491820ABBEFEE72600020070470000C0
:101180002DE9C04130B4DFF8A0C23CEA111418BF09
:101190003CEA131400F0EC8081EA03051CEA111408
:1011A00044EAD57418BF1CEA131500F0C780A4EBFD
:1011B00005044FF0004545EAC12145EAC32341EA51
:1011C000505143EA525304F17F74994204F50034BC
:1011D0004FEAC0204FEAC22208BF904200F09C8034
:1011E0004FEA13650FF24016765D4FEA134506FB92
:1011F00005F7C7F1807706FB07F74FEAD737A7FB5C
:1012000003687642C8F58038A7FB06CE38BFA8F140
:10121000010807FB08E64FF0000EA6FB028CE6FB78
:1012200003CEDCF1000CCEF1004E38BFAEF1010E62
:10123000A6FB0C584FF000074FF00005E6FB0E87A9
:10124000A1FB08C6A0FB07CE16EB0E0645F1000574
:10125000E1FB076515F1E04E7EBFA4F580345FEA3F
:1012600046066D4116F1800745F100054FEA172744
:101270004FEA066647EA0567A6F1DE46B6F1805FEB
:101280004FEA15251FD9384624F0010C05EBC4712F
:10129000BCF1FE6F01EB0C1102D8F0BCBDE800817F
:1012A00024425CBF01F5801E9EEAC47F02D4F0BCDC
:1012B000BDE80081244238D4F0BCA1F1C041BDE8B2
:1012C000004100F0EFB94FEAD22242EA43524FEA1E
:1012D000D323A7FB02864FEAD02040EA415007FB08
:1012E00003661EEA0E0F4FEAD12105FB026658BFC6
:1012F000A6EB0056B6EB00564FEA520E4EEAC37EFE
:1013000018EB0E0E56EB530EBDD518EB02085E41DE
:101310007F1C55F10005B6E74FF480154FF000072C
:101320004FF000064FF00008ADE7F0BC4FF00000B2
:1013300001F1C04101F00041BDE8008111EA0C1F3C
:101340000CEA131500D00CE013EA0C1F00F0258006
:101350004FF00000F0BC81EA030101F00041BDE85C
:101360000081F0BCBDE8004181EA030100F09AB9B8
:10137000F0BCBDE8004170B500F046F9097EFC3EC6
:1013800000F007B881EA03014FF0000001F00041CE
:10139000704781EA030100F085B9F0BCBDE8004167
:1013A0004FF0000021497047FFFDFBF9F7F5F4F21B
:1013B000F0EEEDEBE9E8E6E4E3E1E0DEDDDBDAD8F0
:1013C000D7D5D4D3D1D0CFCDCCCBCAC8C7C6C5C44E
:1013D000C2C1C0BFBEBDBCBBBAB9B8B7B6B5B4B365
:1013E000B2B1B0AFAEADACABAAA9A8A8A7A6A5A450
:1013F000A3A3A2A1A09F9F9E9D9C9C9B9A99999814
:101400009797969595949393929191908F8F8E8EB6
:101410008D8C8C8B8B8A8989888887878685858443
:1014200084838382828181800000FF070000F87F2F
:101430004FEA41034FEA5353A3F58063D3F11E03F0
:10144000C8BFD3F1210C0CDD4FF0004242EAC122AB
:1014500042EA505232FA03FC8CEAE17CACEBE170D8
:101460007047102BC4BF0020704703F5787CBCF197
:10147000FF3F04D06FF0004282EA2100704770B550
:1014800000F0C2F84992248000207047F2E7B0FAD9
:1014900080F310FA03F10AD0C3F11D0303F5806352
:1014A0004FEA41504FEA035202EBD12170474FF00F
:1014B00000007047DFF848C170B51CEA111E1EBF5E
:1014C0001CEA13159EEA0C0F95EA0C0F00F06F80D2
:1014D00081EA030423EA4C134EEAD47E21EA4C113C
:1014E00041F4801143F48013AE44A1FB024CA0FBF5
:1014F0000365AEF17F7E361955EB0C05A1FB034C5D
:101500004CF10003A0FB021C16EB0C06654153F1E5
:101510000003094218BF46F0010613F4007F0BD107
:101520004FEA03314FEA0530340341EA155140EAEE
:1015300016506FF003020AE04FEAC3214FEAC520BC
:10154000F40241EA555140EA56506FF0020202EBB4
:101550002E4201EB025585EACE710AD05FEA440CB7
:1015600018BF24F0004450F1000041F1000120EACE
:10157000D47040F2FE7C624500D270BDA84214BF18
:101580004FF080444FF04044002E08BF0024BEF1CD
:10159000806FA8BFA1F1C041BDE8704080F2828099
:1015A0004FF0000001F1C04101F0004170479EEA98
:1015B0000C0F0CEA131518BF95EA0C0F06D04FF06C
:1015C000000081EA030E0EF0004170BD00F01CF82F
:1015D0008900013E00F007B800F009B84FEA430C5B
:1015E0005FEA5C5C08D081EA030100F05BB84FEA77
:1015F000410C5FEA5C5CF6D14FF000000149704796
:101600000000FF070000F87F0EF1020E2EF0030E1F
:101610005EF8046B364205D4012A43EB030515F549
:10162000001F12D8012841EB010C1CF5001F0CD83B
:101630000ED14FEAD17C15F5001F0CEB4C0C0CF1D0
:10164000020C08BF4CEBD37C04E04FF0080C01E027
:101650004FEAD37C0CEB4C0526FA05F606F007069C
:10166000B6F1040C06D20EEB860CBDE870404CF0CF
:10167000010C6047DFE80CF0090B02024FF000415B
:101680004FF00000A1F5002170BD19461046012859
:1016900051EB010418BFD4F5001484BF002001F001
:1016A000004170BD0808A0F500114FEA31017047F4
:1016B0004FF04070E1EE100A70470000FBF70000A9
:1016C0001B5B324B54656D70657261747572653A5F
:1016D000202564203B20496E74656E7369747920FF
:1016E0006F66204C696768743A202564203B20446B
:1016F000757479204379636C65206F66204C6F6147
:101700006420413A2025642525203B2044757479C6
:10171000204379636C65206F66204C6F61642042C2
:101720003A2025642525203B20447574792043798F
:10173000636C65206F66204C6F616420433A2025FE
:10174000642525203B2044757479204379636C65BA
:10175000206F66204C6F616420443A202564252563
:101760000D00000084170000000000203000000081
:10177000D0020000B4170000300000206004000018
:10178000EC0200000000000000000000C0F9A4B05E
:10179000999282F880900000000000000000000094
:1017A0000000000000000000000000000000000039
:0417B0000000000035
:040000050000026D88
:00000001FF
